:020000040800F2
:1000000028090020890100083D0200083F0200087D
:1000100043020008470200084B02000800000000ED
:100020000000000000000000000000004F02000877
:1000300051020008000000005302000855020008A9
:10004000A3010008A3010008A3010008A301000800
:10005000A3010008A3010008A3010008A3010008F0
:10006000A3010008A3010008A3010008A3010008E0
:10007000A3010008A3010008A3010008A3010008D0
:10008000A3010008A3010008A3010008A3010008C0
:10009000A3010008A3010008A301000861020008F1
:1000A000A30100089D020008A3010008A3010008A5
:1000B000A3010008A3010008A3010008A301000890
:1000C000A3010008A3010008A3010008A301000880
:1000D000A3010008630200086B020008A3010008E6
:1000E000A3010008A3010008A301000800F002F822
:1000F00000F03AF80AA090E8000C82448344AAF188
:100100000107DA4501D100F02FF8AFF2090EBAE885
:100110000F0013F0010F18BFFB1A43F0010318473B
:10012000F44D0000144E0000103A24BF78C878C186
:10013000FAD8520724BF30C830C144BF04680C60ED
:10014000704700000023002400250026103A28BF35
:1001500078C1FBD8520728BF30C148BF0B60704739
:100160001FB51FBD10B510BD04F057F91146FFF7BC
:10017000F7FF00F055F804F075F903B4FFF7F2FF4C
:1001800003BC04F079F9000009488047094800479A
:10019000FEE7FEE7FEE7FEE7FEE7FEE7FEE7FEE737
:1001A000FEE7FEE704480549054A064B7047000094
:1001B000A7190008ED0000082803002028090020E6
:1001C000280500202805002008B54FF4C06001F084
:1001D0006BFC25208DF8000000208DF801008DF8C3
:1001E000020001208DF80300684601F062FC08BDA2
:1001F00010B500F0BCF84FF4E13000F071FAFFF7F1
:10020000E3FF00F0F5FE2821042000F051FE01F08C
:10021000DDFA00F02EFE0849087000F05BFF10BD0B
:10022000FFF7E6FF07E001F0D3F900F0A1FC00F0D2
:10023000B6FE00F0FCFFF6E719000020704700BF93
:10024000FEE700BFFEE700BFFEE700BFFEE7704726
:100250007047704710B500F06BF800F0CFF810BD94
:10026000704710B500F0E4FA10BD10B540F225510A
:10027000254804F08BF880B12348001D00882349ED
:10028000234A1278885422480078401C204908707C
:1002900040F225511C4804F0A3F810BD10B501210F
:1002A0001C4803F09EFE68B301211A4803F0AAFE21
:1002B00019480088401C184908800846008804280E
:1002C00001DD0020088014480088052818D2DFE8E6
:1002D00000F003070B0F130001201049087010E015
:1002E00001200F4908700CE001200E49087008E059
:1002F00001200D49087004E001200C49087000E05D
:1003000000BF00BF10BD000000440040D20000202C
:100310001E000020002C01402000002032000020A0
:10032000330000203400002035000020360000207B
:1003300037480088401C00B235490880354800889D
:10034000401C00B23349088033480088401C00B28A
:100350003149088031480088401C00B22F4908808C
:100360002F480088401C00B22D490880704730B5E6
:100370002C4800682C4AB0FBF2F1B1F1807F01D328
:1003800001201DE021F07F40401E4FF0E02250612F
:1003900050170F22002807DA13071D0E234B00F019
:1003A0000F04241F1D5503E013071C0E204B1C5483
:1003B00000BF00204FF0E022906107201061002074
:1003C00008B100BFFEE74FF0E020006920F0010017
:1003D0004FF0E021086130BD01B516490098086072
:1003E0004FF0E020006940F001004FF0E02108618B
:1003F00000BF104800680028FBD108BD0D48006808
:1004000020B10C480068401E0A490860704700008F
:10041000280000202A0000202C0000202E000020B0
:10042000300000205800002040420F0018ED00E08E
:1004300000E400E02400002000B585B0012144F272
:10044000040002F0EBFC4FF40070ADF8100018202F
:100450008DF8130003208DF8120004A9FE4802F065
:1004600021FA4FF48060ADF8100004208DF81300DD
:1004700004A9F94802F016FAF84800900020ADF8F7
:100480000400ADF80600ADF80800ADF80C000C2033
:10049000ADF80A006946F24803F0FBFD012240F284
:1004A0002551EF4803F08DFE0121ED4803F07DFE5C
:1004B0004021EB4803F061FF40F22551E84803F08A
:1004C0008FFF05B000BD00B585B00121480402F0E2
:1004D000B2FC0121042002F0A1FC0420ADF81000C0
:1004E00018208DF8130003208DF8120004A9DA48B3
:1004F00002F0D8F90820ADF8100004208DF81300A0
:1005000004A9D54802F0CEF94FF41650009000200F
:10051000ADF80400ADF80600ADF80800ADF80C0029
:100520000C20ADF80A006946CE4803F0B2FD012266
:1005300040F22551CB4803F044FE0121C94803F0A5
:1005400034FE4021C74803F018FF40F22551C5484A
:1005500003F046FF05B000BD70B504460D46E1B29C
:10056000C04803F08FFE00BF4021BE4803F0F8FEF4
:100570000128F9D1204670BDF0B503460D46164658
:10058000002729460A2E03D0002008702846F0BD17
:1005900033B9302001F8010B002008702846F6E737
:1005A000002B03DA2D2001F8010B5B4242F210729E
:1005B0000DE093FBF2F404B937B104F1300001F817
:1005C000010B04FB123301270A2092FBF0F2002AF0
:1005D000EFDC002008702846D9E70FB470B586B06C
:1005E00006460CA8019073E00B9800785C281CD19B
:1005F0000B98401C0B9000786E2809D072280FD100
:100600000D21304603F03EFE0B98401C0B900BE092
:100610000A21304603F036FE0B98401C0B9003E095
:100620000B98401C0B9000BF4BE00B9800782528DE
:1006300040D10B98401C0B900078642818D0732888
:1006400033D1019810C801900BE02178304603F0B7
:1006500019FE00BF4021304603F082FE0028F9D089
:10066000641C20780028F0D10B98401C0B9020E0EF
:10067000019820C801900A2202A92846FFF77CFFB2
:1006800002AC0BE02178304603F0FCFD00BF4021B6
:10069000304603F065FE0028F9D0641C207800285D
:1006A000F0D10B98401C0B9003E00B98401C0B9072
:1006B00000BF06E00B9810F8011B0B90304603F0CA
:1006C000E1FD00BF4021304603F04AFE0028F9D08A
:1006D0000B980078002887D106B070BC5DF814FB39
:1006E00010B588B004460121880302F097FB012170
:1006F000042002F093FB4FF40070ADF804000320D7
:100700008DF8060018208DF8070001A9524802F064
:10071000C9F84FF48060ADF8040003208DF806009E
:1007200004208DF8070001A94B4802F0BBF804949F
:100730000020ADF81400ADF81600ADF81800ADF8C3
:100740001C000C20ADF81A000020ADF80800ADF830
:100750000A004FF40070ADF80C000020ADF80E0058
:1007600004A93F4803F095FC02A93D4803F006FDAB
:10077000012240F225513A4803F023FD0121384877
:1007800003F013FD08B010BD10B588B00446012178
:10079000880302F043FB0121042002F03FFB4FF4E9
:1007A0000070ADF8040003208DF8060018208DF8C5
:1007B000070001A9284802F075F84FF48060ADF8F1
:1007C000040003208DF8060004208DF8070001A91D
:1007D000214802F067F804940020ADF81400ADF849
:1007E0001600ADF81800ADF81C000C20ADF81A008A
:1007F0000020ADF80800ADF80A004FF40070ADF825
:100800000C000020ADF80E0004A9154803F041FCCF
:1008100002A9134803F0B2FC012240F2255110480E
:1008200003F0CFFC01210E4803F0BFFC08B010BD5F
:1008300010B508210A4803F093FD10B1084803F0F1
:1008400025FD0748008800F0800030B304480C30D4
:10085000008800F0800007E00008014020A10700A8
:100860000038014000440040B8B11D4801780078CC
:10087000401C1B4A10701B48405C1B4908801046F6
:1008800000781A490978884207D11748083000884B
:1008900020F0800014490831088010BD70B505466D
:1008A0000E46002400BF0AE0295D10480278007857
:1008B000401C0E4B18700B488154601CC4B2B442EB
:1008C000F2DB09480830008800F0800030B90122CE
:1008D00040F227710448001F03F073FC70BD000054
:1008E0004000002036010020043801404100002073
:1008F0002DE9FC410024002001900026FE480068FC
:1009000000900025AA222146641CFC48425421463E
:10091000641C425401222146641C42540022214698
:10092000641C4254F6490868F64904F027FA074661
:1009300004F0D4F900B201909DF805202146641C12
:10094000EE4842549DF804202146641C4254EC4970
:100950004868EC4904F012FA074604F0BFF900B207
:1009600001909DF805202146641CE44842549DF8FE
:1009700004202046611CCCB2E0490A54E049886852
:10098000E04904F0FBF9074604F0A8F900B2019031
:100990009DF805202046611CCCB2D8490A549DF828
:1009A00004202046611CCCB2D4490A549DF803208F
:1009B0002046611CCCB2D1490A549DF80220204641
:1009C000611CCCB2CD490A549DF801202146601C1F
:1009D000C4B2CA4842549DF800202046611CCCB2E3
:1009E000C6490A54C848007830B9A0222146601C84
:1009F000C4B2C248425409E0C3480078012805D176
:100A0000A1222046611CCCB2BC490A54201FBB491C
:100A1000C870002505E0B948405D3044C6B2681C86
:100A2000C5B2A542F7DB2046611CCCB2B3490E54D7
:100A30002146B24800F0F6F9BDE8FC8170B500240B
:100A400000260025AA222146641CAC4842542146B7
:100A5000641C425402222146641C42540022214656
:100A6000641C4254A94842782146641CA34842545D
:100A7000A64802782146641CA0484254A348C27884
:100A80002146641C9D484254A04882782046611C3F
:100A9000CCB29A490A549D4842792046611CCCB296
:100AA00096490A54994802792046611CCCB2934970
:100AB0000A54974842782046611CCCB28F490A54A8
:100AC000934802782046611CCCB28C490A54904865
:100AD000C2782046611CCCB288490A548C4882787E
:100AE0002046611CCCB285490A5489484279204687
:100AF000611CCCB281490A54854802792046611CA8
:100B0000CCB27E490A5400222046611CCCB27B49FB
:100B10000A542046611CCCB278490A542046611C14
:100B2000CCB276490A542046611CCCB273490A54AF
:100B30002046611CCCB271490A542046611CCCB2DB
:100B40006E490A54201FC87000BF05E06B48405D25
:100B50003044C6B2681CC5B2A542F7DB2046611C12
:100B6000CCB266490E542146644800F05BF970BD72
:100B700070B5002400260025AA222146641C5F4887
:100B800042542146641C425402222146641C4254B1
:100B900000222146641C42545E4842792146641C6E
:100BA000564842545B4802792146641C53484254DB
:100BB0005848C2792146641C5048425455488279AD
:100BC0002046611CCCB24D490A5452484278214615
:100BD000601CC4B2494842544E4802782046611C09
:100BE000CCB246490A544B48C2782046611CCCB26C
:100BF00042490A54474882782046611CCCB23F499A
:100C00000A544548427A2046611CCCB23B490A54FA
:100C10004148027A2046611CCCB238490A543E4809
:100C2000C27A2046611CCCB234490A543A48827ACE
:100C30002046611CCCB231490A54201FC87000BF45
:100C400005E02E48405D3044C6B2681CC5B2A542DE
:100C5000F7DB2046611CCCB228490E5421462748B8
:100C600000F0E0F870BD70B5002400260025AA222F
:100C70002146641C214842542146641C42540222ED
:100C80002146641C425400222146641C42542148DF
:100C900042792146641C194842541E480279214673
:100CA000641C164842541B48C2792146641C1348F0
:100CB0004254184882792146601CC4B20F484254FD
:100CC000144842782046611CCCB20C490A541148A1
:100CD00002782146601CC4B2084842540D48C278CC
:100CE0002046611CCCB205490A540A488278204645
:100CF000611CCCB2014911E0140000203602002032
:100D0000800000200000C8421800002006000020DB
:100D1000000000208C000020A80200200A54201FA0
:100D2000C87000BF05E00948405D3044C6B2681C89
:100D3000C5B2A542F7DB2046611CCCB203490E5474
:100D40002146024800F06EF870BD00003602002017
:100D500070B505460C464FF48051A14801F051FE94
:100D6000284600F099F90646204600F095F94FF420
:100D700080519B4801F043FE304670BD70B504467B
:100D80004FF48051964801F03CFE204600F084F973
:100D9000002000F081F905464FF48051904801F0A1
:100DA0002EFE284670BD2DE9F04107460D46164639
:100DB0004FF480518A4801F024FE384600F06CF967
:100DC0008046002404E0285D00F066F9601CC4B28F
:100DD000B442F8DB4FF48051814801F010FE4046E8
:100DE000BDE8F0812DE9F04107460D4616464FF467
:100DF00080517B4801F005FE384600F04DF98046F1
:100E0000002405E0002000F047F92855601CC4B21A
:100E1000B442F7DB4FF48051714801F0F0FD4046D9
:100E2000BDE8F08170B504460D4620216C4801F004
:100E3000E8FD05226B492A20FFF7B5FF2A46214627
:100E4000A020FFF7B0FF2021654801F0D8FD70BD5C
:100E500070B504460D462021614801F0D2FD2A46B6
:100E60002146A820FFF79FFF20215D4801F0C7FD24
:100E700070BD1CB505225B493020FFF794FF0522A9
:100E800069461020FFF7AEFF002408E01DF80400BB
:100E90005449095D884200D003E0601CC4B2052CAF
:100EA000F4DB00BF052C01D101201CBD0020FCE7B4
:100EB00070B504460D462021494801F0A2FD0522E7
:100EC00049492A20FFF76FFF052246493020FFF7E6
:100ED0006AFF01212120FFF73BFF01212220FFF7BC
:100EE00037FF1A212420FFF733FF29462520FFF77B
:100EF0002FFF0F212620FFF72BFF012C08D12021E7
:100F00003120FFF725FF0F212020FFF721FF41E0CF
:100F1000022C08D120213120FFF71AFF0E212020BA
:100F2000FFF716FF36E0032C1AD1FF21E120FFF76F
:100F30000FFFFF21E220FFF70BFF0F212020FFF71B
:100F400007FF502000F0A8F8732000F0A5F8012159
:100F50003C20FFF7FDFE06213D20FFF7F9FE19E0DA
:100F60000E212020FFF7F4FEFF21E120FFF7F0FE25
:100F7000FF21E220FFF7ECFE502000F08DF87320F7
:100F800000F08AF801213C20FFF7E2FE06213D2017
:100F9000FFF7DEFE2021124801F031FD70BD70B573
:100FA0000720FFF7EBFE044604F0400048B1602044
:100FB000FFF7E4FE05462A460C496120FFF712FFC1
:100FC00000BF04F0100030B104F0010018B1FF219F
:100FD000E120FFF7BDFE21462720FFF7B9FE70BDD7
:100FE000000C014042000020470000206802002061
:100FF00000B587B00121042001F010FF0121082075
:1010000001F00CFF0121880301F015FF4FF460404F
:10101000ADF8040001208DF8060018208DF80700B7
:1010200001A92A4801F03EFC4FF48150ADF80400BC
:1010300001208DF8060010208DF8070001A9234833
:1010400001F030FC4FF48051204801F0D8FC002022
:10105000ADF808004FF48270ADF80A000020ADF83A
:101060000C00ADF80E00ADF810004FF40070ADF8B4
:1010700012001020ADF814000020ADF81600072073
:10108000ADF8180002A9124801F052FF01211048E2
:1010900001F0F3FF07B000BD10B5044600BF022108
:1010A0000B4802F06EF80028F9D02146084802F0FB
:1010B00015F800BF0121064802F063F80028F9D0B6
:1010C000034802F00DF8C0B210BD0000000C014052
:1010D0000038004000B591B00121084601F091FEB2
:1010E00001214FF4037001F099FE0320ADF8400098
:1010F00000208DF8430010A9FE4801F0D3FB1F200B
:10110000ADF8400010A9FC4801F0CCFBFB4800F012
:1011100061FFFB480590FB480690002007900720E0
:1011200008900020099080200A9040000B908000D9
:101130000C9020200D9000020E9000200F9005A929
:10114000EE4800F0E9FF0121EC4801F010F8002022
:10115000009001208DF804008DF805004FF4602008
:1011600002900020039007208DF810006946E448A3
:101170004C3800F02EFD4FF4004001F0B3FD052384
:1011800001220021DE484C3800F0BBFD052302227D
:101190000121DB484C3800F0B4FD05230322022175
:1011A000D7484C3800F0ADFD052304220321D44874
:1011B0004C3800F0A6FD05231A460421D0484C38CF
:1011C00000F09FFD052306220821CD484C3800F091
:1011D00098FD052307220921C9484C3800F091FDEC
:1011E0000121C7484C3800F02BFD0121C4484C3880
:1011F00000F01BFDC2484C3800F039FD00BFC0486C
:101200004C3800F039FD0028F9D1BD484C3800F0C9
:101210003DFD00BFBA484C3800F03DFD0028F9D133
:101220000121B7484C3800F040FD11B000BD10B5A9
:10123000B449488903F08EFD044603F06BFDB249C2
:101240000880B049888903F085FD044603F062FDFB
:10125000AE490880AE48008820B1AD480088401EE5
:10126000AB490880A848008864281ADAA848008892
:1012700018B942F21070A6490880A3480088642873
:101280000EDAA348008801280AD1A2484088801EAF
:1012900000B2A049488000F09FFA00209E490870E3
:1012A00088E09948008840F2EE21884225DD964882
:1012B0000088B0F5617F20DA9548008810B90A20CF
:1012C000934908809048008840F2EE21884271DD01
:1012D0008D480088B0F5617F6CDA8D480088012860
:1012E00068D18C480088801C00B28A49088000F0D0
:1012F00073FA0020884908705CE083480088B0F5E4
:10130000876F24DD80480088B0F5966F1FDA80482B
:10131000008810B90A207E4908807B480088B0F513
:10132000876F47DD78480088B0F5966F42DA7848D5
:10133000008801283ED177484088801C00B275495A
:10134000488000F049FA00207349087032E06E4886
:101350000088B0F5617F24DD6B480088B0F5876FA9
:101360001FDA6B48008810B90A206949088066486E
:101370000088B0F5617F1DDD63480088B0F5876F98
:1013800018DA63480088012814D162480088801E5A
:1013900000B26049088000F01FFA00205E49087022
:1013A00008E05948008840F6D271884202DD0120E9
:1013B0005949087055480088642820DA5748007851
:1013C000E8B15348008810B90A20514908804F48B5
:1013D0000088642812DA5148007800280ED04C4862
:1013E000008801280AD14B488088801E00B24949F4
:1013F000888000F0F1F9002048490870E7E0434890
:10140000008840F26C7188422EDD4048008840F62A
:101410003401884228DA4148007828B33C480088E3
:1014200010B90A203A4908803848008840F26C71A7
:101430008842E3DD3548008840F634018842DDDA31
:10144000364800780028D9D0314800880128D5D105
:101450003048C088801E00B22E49C88000F0B5F91F
:1014600000202E490870B2E02848008840F6282164
:1014700088422CDD25480088B0F52F6F27DA2748F1
:10148000007820B32248008810B90A20204908803B
:101490001E48008840F62821884217DD1B48008836
:1014A000B0F52F6F12DA1D48007800280ED01848CA
:1014B000008801280AD117488088801C00B215498D
:1014C000888000F082F90020144908707FE00F48FE
:1014D000008840F68631884245DD0C48008840F699
:1014E0004E4188423FDA0D480078D8B3084800885A
:1014F000C8B915E0000C0140000801400800024096
:101500004C240140A80200204C0000204E00002086
:1015100052000020B60200205000002051000020A0
:101520000A209C4908809C48008840F68631884201
:101530004DDD9948008840F64E41884247DA974889
:10154000007820B393480088012840D19448C0888F
:10155000801C00B29249C88000F037F900208F4902
:10156000087034E0FFE78C480088B0F5486F0FDD65
:101570008948008840F6E441884209DA87480078C3
:1015800030B18448008810B90A20824908801EE0E2
:101590008148008840F6165188420FDD7E48008859
:1015A00040F67A51884209DA7C48007830B17948AF
:1015B000008810B90A207749088008E0764800883A
:1015C00040F6D271884202DD01207449087010BDD6
:1015D0002DE9FC5F7349488803F085F982460022B3
:1015E000714B03F093F980460022704B02F0F4FF38
:1015F000064600226C4B02F047FF044603F044F914
:1016000000B26B4988800846B0F90400B0F57A6FE3
:1016100002DD4FF47A6088806548B0F90400B0F5C7
:101620007A7F03DA4FF47A70614988806048B0F9B4
:101630000400C0F57A6000F57A7000B25C498880D9
:101640005849088803F04FF906460022564B03F02C
:101650005DF982460022554B02F0BEFF8046002213
:10166000514B02F011FF044603F00EF900B250494D
:10167000C8800846B0F90600B0F5FA6F02DD4FF4F5
:10168000FA60C8804A48B0F90600B0F57A7F03DAFC
:101690004FF47A704649C8804548B0F90600C0F555
:1016A000FA6000F2DE3000B24149C8803D49C88886
:1016B00003F019F9804600223B4B03F027F9064658
:1016C00000223A4B02F088FF04460022364B02F01B
:1016D000DBFE82460022374B02F0D6FECDE9000148
:1016E00003F0D2F800B2324908800846B0F9000091
:1016F000B0F5FA6F02DD4FF4FA6008802C48B0F9BB
:101700000000B0F57A7F03DA4FF47A702849088038
:101710002748B0F90000C0F5FA6000F57A7000B211
:10172000234908801F49888803F0DDF80646002217
:101730001D4B03F0EBF8044600221C4B02F04CFF5B
:1017400080460022184B02F09FFE824603F09CF870
:1017500000B2174948800846B0F90200B0F5FA6FA8
:1017600002DD4FF4FA6048801148B0F90200B0F58C
:101770007A7F03DA4FF47A700D4948800C48B0F94B
:101780000200C0F5FA6000F2B63000B208494880A5
:10179000BDE8FC9F520000204E00002051000020B8
:1017A000B6020020A802002000408F400000A040A8
:1017B0008C00002000003E40704700B5FFF7FCFFA2
:1017C00000BD00B5FFF7F9FF00BD704710B510214F
:1017D000104800F023F810BD10B510210D4800F09E
:1017E0003EF810BD70B504460D460B48008820B188
:1017F00009480088401C0849088094FBF5F0064918
:101800000988884204DCFFF7E7FF002002490880CE
:1018100070BD0000B60200205400002018B502463A
:101820000B46002100BF16E0581E4C1CA0420ADBEC
:101830002448085A00909DF8000050549DF801403B
:10184000481C145405E01F48085A00909DF80000F9
:101850005054881C81B29942E6DB012018BD2DE965
:10186000F04105460E46002400F0FDFC154800F04E
:101870003FFD8046B8F1040F02D00020BDE8F081A2
:1018800000241BE0701E611C884206DB295D601C81
:10189000285C01EB002087B203E0285D00F57F4063
:1018A00087B208496018394600F025FE8046B8F135
:1018B000040F01D00020E1E7A01C84B2B442E1DBB8
:1018C0000120DBE7000001080CB50020019000902A
:1018D0006C48006840F480306A49086000BF69487D
:1018E000006800F4003000900198401C01900098BE
:1018F00018B90198B0F5A06FF1D16248006800F402
:10190000003010B10120009001E00020009000980C
:10191000012843D15C48006840F010005A49086033
:101920000846006820F0030008600846006840F0A0
:1019300002000860534840685249486008464068C1
:1019400048600846406840F4806048600846406847
:1019500020F47C1048600846406840F4E810486075
:101960000846006840F08070086000BF4548006885
:1019700000F000700028F9D04248406820F00300D1
:10198000404948600846406840F00200486000BF97
:101990003C48406800F00C000828F9D10CBD10B597
:1019A000FFF792FF10BD10B53648006840F0010007
:1019B0003449086008464068344908403149486065
:1019C00008460068324908402E4908600846006809
:1019D00020F4802008600846406820F4FE0048603B
:1019E0004FF41F008860FFF7DAFF4FF000602949CD
:1019F000086010BD10B5002100200022214B5B685B
:101A000003F00C0121B1042906D0082928D107E0F0
:101A1000214B224C236027E01F4B204C236023E006
:101A2000184B5B6803F47010164B5B6803F480324C
:101A3000022303EB904022B9194B4343174C236018
:101A40000DE0104B5B6803F4003323B1144B4343A8
:101A5000124C236003E0104B4343104C236003E01F
:101A60000D4B0E4C236000BF00BF064B5B68C3F3F9
:101A700003130C4CE15C094B1B68CB40074C236003
:101A800010BD000000100240002002400000FFF8DE
:101A9000FFFFF6FE08ED00E000127A00580000207B
:101AA00000093D005C00002031490143314A1160CA
:101AB000704770B5002100230F22C47804B32D4C69
:101AC000246804F4E064C4F5E064210AC1F104036D
:101AD000CA40447804FA03F1847814402143090190
:101AE000254C0678A155047804F01F050124AC406C
:101AF00005786D11AD0005F1E025C5F8004109E05C
:101B0000047804F01F050124AC401C4D06787611C2
:101B100045F8264070BD1A4A0A400243154B1B1F68
:101B20001A60704739B1134A121D12680243114BF3
:101B30001B1D1A6006E00F4A121D126882430D4BEE
:101B40001B1D1A607047042808D14FF0E021096975
:101B500041F004014FF0E022116107E04FF0E02175
:101B6000096921F004014FF0E02211617047000083
:101B70000000FA050CED00E000E400E080E100E088
:101B800080FFFF1F10B50446FA48844208D10121A6
:101B9000401501F05DF90021601501F059F917E0D9
:101BA000F548844208D10121001501F051F90021C6
:101BB000201501F04DF90BE0F048844208D10121D5
:101BC000C80301F045F900214FF4004001F040F94D
:101BD00010BD30B50246002000235068E84C20407C
:101BE0000D790C6844EA0524204350609068E54C68
:101BF0002040D1E902542C434D7944EA4504204366
:101C00009060D06A20F470000C7C641EE4B2234320
:101C100040EA0350D06230BD002101600171417182
:101C20008160C16001210174704721B1826842F076
:101C30000102826003E0826822F001028260704744
:101C400021B1826842F48072826003E0826822F4EB
:101C500080728260704710B50023CBB21AB144681D
:101C60001C43446002E044689C43446010BD8168AA
:101C700041F0080181607047014600208A6802F047
:101C800008020AB1012000E000207047816841F09D
:101C9000040181607047014600208A6802F0040256
:101CA0000AB1012000E00020704721B1826842F4AF
:101CB000A002826003E0826822F4A0028260704782
:101CC000014600208A6802F480020AB1012000E087
:101CD0000020704710B50A4600210023416821F416
:101CE0006041531E41EA4331416010BD21B1426859
:101CF00042F40062426003E0426822F40062426003
:101D00007047F0B504460D4600200021092D11DD75
:101D1000E068A5F10A0606EB4607072606FA07F172
:101D20008843A5F10A0606EB460603FA06F10843C6
:101D3000E0600CE0206905EB4507072606FA07F18D
:101D4000884305EB450603FA06F108432061072A9C
:101D50000FDA606B561E06EB86071F2606FA07F1A0
:101D60008843561E06EB860605FA06F108436063B3
:101D700022E00D2A0FDA206BD61F06EB86071F26FE
:101D800006FA07F18843D61F06EB860605FA06F128
:101D90000843206310E0E06AA2F10D0606EB860717
:101DA0001F2606FA07F18843A2F10D0606EB860608
:101DB00005FA06F10843E062F0BD21B1826842F401
:101DC0008012826003E0826822F480128260704791
:101DD0000146C86C80B2704766484C300068704756
:101DE00021B1426842F48062426003E0426822F41A
:101DF00080624260704721B1426842F48052426082
:101E000003E0426822F48052426070470A46002193
:101E1000816821F4E04111438160704721B18268FB
:101E200042F40042826003E0826822F40042826051
:101E3000704721B1826842F40212826003E0826836
:101E400022F4021282607047014600208A6802F480
:101E500000120AB1012000E000207047F0B50446EE
:101E60001546002000220026092911DDE068A1F1B5
:101E70000A0707EB470C072707FA0CF29043A1F17A
:101E80000A0707EB470703FA07F21043E0600CE08C
:101E9000206901EB410C072707FA0CF2904301EB94
:101EA000410703FA07F210432061A06BC0F301560B
:101EB000EF1C06F1010CA7EB0C0707EB870C1F27A3
:101EC00007FA0CF29043EF1C06F1010CA7EB0C078C
:101ED00007EB870701FA07F21043A063F0BD10B5C6
:101EE0000A4600210023816B21F44011531E41EA70
:101EF0000351816310BD08B5002300930090009B3F
:101F00000B440093009B1A6008BD08B502460020F0
:101F10000090009201F12800009B18440090009866
:101F2000006880B208BD0A4600214168164B19407E
:101F30001143416070474162826270470A46002146
:101F4000416821F01F0111434160704740B10949C8
:101F50000831096841F40001064A0832116007E0BF
:101F600004490831096821F40001024A083211606D
:101F7000704700000024014000280140003C01405F
:101F8000FFFEF0FFFDF7F1FFFFFD3FFF02460020DF
:101F900013680B400BB1012000E000207047CA43DA
:101FA0000260704770B502460020002300240B1227
:101FB0005568CEB205EA060415681D4015B10CB18E
:101FC000012000E0002070BD00220A12D34303600C
:101FD0007047000001684FF6FE7211400160002159
:101FE000016041608160C1608D49884208D18C499F
:101FF0000839496841F00F01894A083A51608AE07E
:1020000087491431884208D185490839496841F027
:10201000F001834A083A51607DE0814928318842C5
:1020200008D17F490839496841F470617C4A083A0F
:10203000516070E07A493C31884208D178490839CA
:10204000496841F47041764A083A516063E0744946
:102050005031884208D172490839496841F47021E9
:102060006F4A083A516056E06D496431884208D1A0
:102070006B490839496841F47001694A083A51606E
:1020800049E067497831884208D16549083949688B
:1020900041F07061624A083A51603CE0614988420F
:1020A00006D1011F096841F00F01021F116032E0E3
:1020B0005C491431884208D15A49091F096841F026
:1020C000F001584A121F116025E056492831884214
:1020D00008D15449091F096841F47061514A121F1F
:1020E000116018E04F493C31884208D14D49091F21
:1020F000096841F470414B4A121F11600BE04949D5
:102100005031884207D14749091F096841F47021BD
:10211000444A121F1160704710B50022026847F64A
:10212000F0739A430C6A8B6823430C6923434C6910
:1021300023438C692343CC6923434C6A23438C6A31
:1021400023431A430260CB6843600B6883604B688B
:10215000C36010BD0021016041608160C160016108
:1021600041618161C161016241628162704721B157
:10217000026842F00102026004E002684FF6FE735A
:102180001A40026070471AB103680B43036002E013
:1021900003688B430360704741607047014648689D
:1021A00080B2704701460020002201F080531BB12D
:1021B0001C4B083B1A6802E0194B083B1A6802EAFC
:1021C00001030BB1012000E00020704700F08051B6
:1021D00019B11449091F086002E011490839486023
:1021E000704701460020002201F080531BB10D4BC7
:1021F000083B1A6802E00A4B083B1A6802EA01032E
:102200000BB1012000E00020704700F0805119B1AF
:102210000449091F086002E0014908394860704715
:10222000080002400804024001460020FE4A1068EF
:1022300000F03800084310607047FB49096821F03E
:102240000801F94A1160114609680143116070479D
:10225000F549096821F01001F34A11601146096837
:10226000014311607047F148EF494860F048486009
:102270007047EE48EC494860ED4848607047EA48CE
:10228000006940F08000E84908617047E64800694D
:1022900040F08000E449086170470420E249C968C1
:1022A00001F0010109B101200EE0DF49C96801F028
:1022B000040109B1022007E0DB49C96801F01001FF
:1022C00009B1032000E00420704700B50246042352
:1022D000FFF7E3FF034603E0FFF7DFFF0346521E6D
:1022E000012B01D1002AF7D102B90523184600BD00
:1022F00030B5044604254FF43020FFF7E6FF0546CD
:10230000042D17D1C848006940F00200C649086191
:1023100008464461006940F0400008614FF43020F5
:10232000FFF7D3FF0546C048006941F6FD7108403C
:10233000BD490861284630BD10B504244FF4302053
:10234000FFF7C3FF0446042C16D1B748006940F0DC
:102350000400B54908610846006940F04000086182
:102360004FF43020FFF7B1FF0446AF48006941F653
:10237000FB710840AC490861204610BD00B502461B
:102380000423FFF78AFF034603E0FFF786FF0346B7
:10239000521E012B01D1002AF7D102B9052318469C
:1023A00000BD10B504244FF43020FFF7E7FF0446CA
:1023B000042C16D19C48006940F004009A49086139
:1023C0000846006940F0400008614FF43020FFF7F4
:1023D000D5FF04469448006941F6FB7108409249D4
:1023E0000861204610BD00208F49C96901F0020133
:1023F00009B1012000E00020704730B5A525042474
:10240000FFF7F1FF00B100254FF43020FFF75DFF2B
:102410000446042C3AD18548834988608448886002
:102420000846006940F0200008610846006940F055
:10243000400008614FF43020FFF747FF0446042CAA
:102440001BD17948006941F6DF710840764908617F
:102450000846006940F01000086176480580E002F7
:10246000FFF733FF0446052C10D06F48006941F692
:10247000EF7108406C49086108E0052C06D06A48F5
:10248000006941F6EF71084067490861204630BD98
:1024900078B506460C46042500200090E802FFF7B8
:1024A00014FF0546042D24D15F48006940F0010067
:1024B0005D4908613480E802FFF707FF0546042DF7
:1024C00010D1B01C0090200C00990880E802FFF7A2
:1024D000FCFE05465448006941F6FE710840524929
:1024E000086106E05048006941F6FE7108404E4917
:1024F0000861284678BD70B504460D460426F002F2
:10250000FFF7E3FE0646042E11D14748006940F06C
:102510000100454908612580F002FFF7D6FE064616
:102520004148006941F6FE7108403F490861304664
:1025300070BD70B505460E460424E002FFF7C5FEE7
:102540000446042C17D139483749886038488860D8
:102550000846006940F0100008612E80E002FFF795
:10256000B4FE0446052C06D02F48006941F6EF71F1
:1025700008402D490861204670BD2DE9F04304460E
:102580004FF6FF763746B046B1460425E443E6B23F
:10259000C4F30727C4F307484FEA1469E802FFF7BA
:1025A00094FE0546042D49D120481F4988602048E3
:1025B00088600846006940F010000861FF2E06D0D0
:1025C0001C4808300680E802FFF77FFE0546042D10
:1025D00008D1FF2F06D017480A300780E802FFF71E
:1025E00074FE0546042D0AD1B8F1FF0F07D011483B
:1025F0000C30A0F80080E802FFF767FE0546042DC6
:102600000AD1B9F1FF0F07D00A480E30A0F80090A8
:10261000E802FFF75AFE0546052D0FD00248006973
:1026200041F6EF71084007E00020024023016745B2
:10263000AB89EFCD00F8FF1F664908612846BDE869
:10264000F08330B5054604244FF43020FFF73DFEFB
:102650000446042C41D160485E4988605F48886028
:102660000846006940F0200008610846006940F013
:10267000400008614FF43020FFF727FE0446042C89
:1026800022D15448006941F6DF7108405149086180
:102690000846006940F0100008611DB10020504953
:1026A000088002E0A5204E4908804FF43020FFF753
:1026B0000CFE0446052C10D04648006941F6EF7127
:1026C00008404449086108E0052C06D041480069EB
:1026D00041F6DF7108403F490861204630BDF0B542
:1026E00005460E46174604243B483A4988603B4855
:1026F0008860E002FFF7E9FD0446042C19D1354853
:10270000006940F010003349086147F0F800304399
:1027100028433349891C0880E002FFF7D6FD0446B0
:10272000052C06D02B48006941F6EF710840294975
:1027300008612046F0BD2748C069800870472548D9
:10274000006A704700202349096801F0200109B19F
:10275000012000E00020704729B11E4A126902439F
:102760001C4B1A6104E01B4A12698243194B1A611F
:10277000704701460020012908D1164AD26902F0AB
:1027800001020AB1012008E0002006E0114AD268E7
:102790000A400AB1012000E0002070470D49C860DE
:1027A000704704200B49C96801F0010109B10120FB
:1027B0000EE00849C96801F0040109B1022007E0F0
:1027C0000449C96801F0100109B1032000E00420A8
:1027D000704700000020024023016745AB89EFCD20
:1027E00000F8FF1F10B50446CC48844208D10121EF
:1027F000042000F02DFB0021042000F029FB46E01E
:10280000C748844208D10121082000F021FB0021A3
:10281000082000F01DFB3AE0C248844208D10121A3
:10282000102000F015FB0021102000F011FB2EE01D
:10283000BD48844208D10121202000F009FB00217D
:10284000202000F005FB22E0B848844208D1012195
:10285000402000F0FDFA0021402000F0F9FA16E0D7
:10286000B348844208D10121802000F0F1FA002110
:10287000802000F0EDFA0AE0AE48844207D1012141
:10288000801500F0E5FA0021A01500F0E1FA10BD76
:1028900010B50121084600F0DBFA0021012000F00C
:1028A000D7FA10BD2DE9F041024600250026002090
:1028B00000230024002791F803C00CF00F0591F8C5
:1028C00003C00CF0100CBCF1000F03D091F802C053
:1028D0004CEA050591F800C0BCF1000F31D0146836
:1028E00000202BE04FF0010C0CFA00F3B1F800C00F
:1028F0000CEA03069E4220D183004FF00F0C0CFA25
:1029000003F7BC4305FA03FC4CEA040491F803C046
:10291000BCF1280F06D14FF0010C0CFA00FCC2F8F4
:1029200014C00AE091F803C0BCF1480F05D14FF084
:10293000010C0CFA00FCC2F810C0401C0828D1D3CE
:102940001460B1F800C0BCF1FF0F34DD5468002002
:102950002EE000F1080C4FF0010808FA0CF3B1F872
:1029600000C00CEA03069E4221D183004FF00F0CF9
:102970000CFA03F7BC4305FA03FC4CEA040491F893
:1029800003C0BCF1280F05D100F1080C08FA0CF8BF
:10299000C2F8148091F803C0BCF1480F07D100F1D0
:1029A000080C4FF0010808FA0CF8C2F81080401C1F
:1029B0000828CED35460BDE8F0814FF6FF71018046
:1029C000022181700421C170704702460020936883
:1029D0000B400BB1012000E00020704701468868E1
:1029E00080B2704702460020D3680B400BB1012033
:1029F00000E0002070470146C86880B2704701615E
:102A00007047416170470AB1016100E04161704760
:102A1000C16070474FF480320A43826181618261F4
:102A200082698269704702460020434B18684FF65E
:102A30008073184040EA021008433F4B186070470B
:102A40003E49C8617047F0B50A46002300240021C2
:102A5000002500F00046B6F1004F02D1364EF16974
:102A600001E0354E7168C0F3034583B200F44016AF
:102A7000B6F5401F08D121F070612F4E766826F020
:102A800070662D4F7E6012E000F48016B6F5801F50
:102A900006D1032606FA05F4A14341F0706106E071
:102AA000460D360103FA06F6B14341F0706122B1DA
:102AB000460D360103FA06F6314300F00046B6F142
:102AC000004F02D11C4EF16101E01B4E7160F0BD60
:102AD00030B500228B071C0F0F2303FA04F2164BAC
:102AE00008338C1053F824309343134C08348D1062
:102AF00044F8253023468C1053F824308C07240FDB
:102B000000FA04F423430C4C08348D1044F82530AB
:102B100030BD0A49DC310860704700000008014000
:102B2000000C014000100140001401400018014059
:102B3000001C014000200140000001400000204234
:102B4000DF48006840F00100DD4908600846406841
:102B5000DC490840DA49486008460068DA4908401C
:102B6000D74908600846006820F4802008600846BD
:102B7000406820F4FE0048604FF41F0088607047F2
:102B8000CF49096821F48031CD4A116011460968A6
:102B900021F480211160B0F5803F03D0B0F5802F83
:102BA0000ED106E0C649096841F48031C44A11607B
:102BB00007E0C349096841F4A021C14A116000E05F
:102BC00000BF00BF704710B501460022002300205F
:102BD0004A11012A02D1BA4C236806E0022A02D126
:102BE000B74C236A01E0B64C636A01F01F0201246E
:102BF00094401C400CB1012000E0002010BD38B50D
:102C0000002000900024002500BF3120FFF7DBFFEB
:102C100005460098401C00900098B0F5A06F01D0C8
:102C2000002DF2D03120FFF7CEFF08B1012400E0E3
:102C30000024204638BD01460020A14A106820F03B
:102C4000F80040EAC10010607047A0490860704772
:102C5000024600209A4B586820F47C1042EA010397
:102C60001843974B5860704798490866704701466B
:102C70000020934A506820F00300084350607047DA
:102C80008F48406800F00C007047014600208C4AD5
:102C9000506820F0F0000843506070470146002063
:102CA000874A506820F4E06008435060704701464E
:102CB0000020834A506820F4605040EAC100506010
:102CC000704729B17E4A527A02437D4B5A7204E022
:102CD0007B4A527A82437A4B5A7270477B49D83189
:102CE0000860704701460020754A506820F4404053
:102CF0000843506070470021714A20321170704AB9
:102D000082F82010012802D004280AD104E0012111
:102D10006B4A2032117005E00521694A203211709A
:102D200000E000BF00BF7047694908607047644910
:102D3000096A0143624A1162704765494439086073
:102D4000704730B500210022002400235C4D6D68DF
:102D500005F00C0121B1042905D0082923D105E093
:102D60005C4D056022E05B4D05601FE0544D6D68D1
:102D700005F47012524D6D6805F48034022505EBA0
:102D800092421CB9544D554305600BE04C4D6D68A3
:102D900005F400351DB1504D5543056002E04D4D21
:102DA0005543056002E04B4D056000BF00BF444D38
:102DB0006D6805F0F0010909484D6B5C0568DD4060
:102DC00045603F4D6D6805F4E061090A434D6B5C59
:102DD0004568DD4085603A4D6D6805F46051C90A6B
:102DE0003E4D6B5C4568DD40C560354D6D6805F452
:102DF0004041890B3A4D6B5CC568B5FBF3F5056145
:102E000030BD29B12E4A526902432D4B5A6104E06C
:102E10002B4A526982432A4B5A61704729B1284A8A
:102E200092690243264B9A6104E0254A92698243E3
:102E3000234B9A61704729B1214AD2690243204B42
:102E4000DA6104E01E4AD26982431D4BDA617047A1
:102E500029B11B4AD2680243194BDA6004E0184AD0
:102E6000D2688243164BDA60704729B1144A12695E
:102E70000243134B1A6104E0114A12698243104B5A
:102E80001A61704712494039086070470F49C86499
:102E900070470B49C87170470948406A40F080701C
:102EA00007494862704701460020054A92680A4077
:102EB0000AB1012000E00020704701498872704784
:102EC000001002400000FFF8FFFFF6FE0000424243
:102ED0008004424200127A0000093D006C0000208C
:102EE0007C00002010B50446BE48844208D1012170
:102EF0008014FFF7ADFF0021A014FFF7A9FF16E033
:102F0000B948844208D101210014FFF7AEFF002127
:102F10002014FFF7AAFF0AE0B448844207D1012138
:102F2000C013FFF7A2FF0021E013FFF79EFF10BDC3
:102F300010B50022028802F441520B884C882343CA
:102F40008C882343CC8823430C8923434C89234317
:102F50008C892343CC8923431A430280838B4FF20D
:102F6000FF74234083830B8A038210BD2DE9F04F49
:102F700085B005460C464FF0000902274FF00008C7
:102F80004FF0010B0026B246A88B4FF240010840DB
:102F9000A88302202884B5F81C90A068022801D1DB
:102FA00000BF38E0A08810B94FF0010B01E04FF0EE
:102FB000020B8D48854200D100E000BF6846FFF754
:102FC000C0FEDDF800A0E088B0F5007F0AD14FEA2E
:102FD0001A2000EB80004000A168B0FBF1F0401D1A
:102FE00086B20BE04FEA4B10BAFBF0F000EB80002A
:102FF0004000A168B0FBF1F0401D86B20A20B6FB8C
:10300000F0F606F00108A6EB0800C0F34F074FF6F4
:10301000FF7000EA0828022F01DBFF2F02DD0227E4
:103020004FF00008E08840EA080038432884A08870
:10303000A1890843618808432188084340F400605F
:1030400040EA0909A5F81C9005B0BDE8F08F002101
:10305000018041808180C180018141818181C18164
:103060000721018270470021018041808180C18059
:103070000221816000218181704721B1028842F0E4
:103080004002028004E002884FF6BF731A400280BB
:10309000704721B1828B42F48062828304E0828B8C
:1030A0004FF6FF331A408283704730B50024002367
:1030B0000C110125A540ABB21AB185881D4385804E
:1030C00002E085889D43858030BD1AB183880B431B
:1030D000838002E083888B438380704781817047BF
:1030E0000146888970474FF6FF62914204D00288FA
:1030F00042F48072028004E002884FF6FF631A40B7
:103100000280704721B1828842F00402828004E08C
:1031100082884FF6FB731A408280704702884FF214
:10312000FF731A40028002880A43028070470188B8
:1031300041F480510180704721B1028842F400526D
:10314000028004E002884DF6FF731A400280704747
:1031500002460020012901D0108B00E0908A7047C0
:103160000146088A7047B1F5804F04D1028842F4C5
:103170008042028004E002884BF6FF731A4002800E
:1031800070470246002013890B400BB1012000E07C
:1031900000207047CA4302817047F0B50246002004
:1031A00000240023002501F00F070126BE40B4B221
:1031B0000B1101269E40B3B2968806EA03051689D4
:1031C000264016B10DB1012000E00020F0BD10B581
:1031D000002201F00F040123A3409AB2D3430381DC
:1031E00010BD00000030014000380040003C0040AD
:1031F00010B50446FE48844208D10121C014FFF7EF
:1032000027FE0021E014FFF723FEC4E0B4F1804F55
:1032100008D101210846FFF728FE00210120FFF711
:1032200024FEB8E0F348844208D101210220FFF7D0
:103230001CFE00210220FFF718FEACE0EE4884429D
:1032400008D101210420FFF710FE00210420FFF720
:103250000CFEA0E0E948844208D101210820FFF7D4
:1032600004FE00210820FFF700FE94E0E4488442B9
:1032700008D101211020FFF7F8FD00211020FFF7F1
:10328000F4FD88E0DF48844208D101212020FFF7C7
:10329000ECFD00212020FFF7E8FD7CE0DA488442C5
:1032A00008D101214014FFF7D3FD00216014FFF77E
:1032B000CFFD70E0D548844209D10121C804FFF751
:1032C000C7FD00214FF40020FFF7C2FD63E0D048A6
:1032D000844209D101210805FFF7BAFD00214FF40E
:1032E0008010FFF7B5FD56E0CA48844209D101219C
:1032F0004805FFF7ADFD00214FF40010FFF7A8FDD2
:1033000049E0C548844208D101214020FFF7ADFDC6
:1033100000214020FFF7A9FD3DE0C048844208D1CC
:1033200001218020FFF7A1FD00218020FFF79DFDF6
:1033300031E0BB48844208D101218015FFF795FD9B
:103340000021A015FFF791FD25E0B648844209D180
:1033500001210804FFF77CFD00214FF48030FFF7C6
:1033600077FD18E0B048844209D101214804FFF7F5
:103370006FFD00214FF40030FFF76AFD0BE0AB4812
:10338000844208D101218804FFF762FD00214FF437
:103390008020FFF75DFD10BD00220288944B98420B
:1033A0000ED0994B98420BD0B0F1804F08D0914B82
:1033B000984205D0904B984202D0904B984204D14D
:1033C0004FF68F731A404B881A438D4B984207D0A3
:1033D0008C4B984204D04FF6FF431A40CB881A43D7
:1033E00002808B8883850B880385814B98420BD0A4
:1033F000854B984208D08B4B984205D08A4B984217
:1034000002D08A4B984201D10B7A03860123838232
:10341000704770B5002400220023058C4FF6FE761D
:1034200035400584028C8388048B4FF68F752C40C1
:10343000B51E2C400D882C43751E2A400D892A4349
:103440004D882A436A4DA8420BD06F4DA84208D040
:10345000744DA84205D0744DA84202D0734DA842C5
:1034600013D14FF6F7752A404D892A434FF6FB7565
:103470002A408D882A434FF6FF652B404FF6FF55B3
:103480002B408D892B43CD892B4383800483CD88AA
:103490008586028470BD70B5002400220023058C4F
:1034A0004FF6EF7635400584028C8388048B48F60E
:1034B000FF752C404FF6FF452C400D884FF6FF76E8
:1034C00006EA05252C434FF6DF752A400D8906EAEA
:1034D00005152A434D8806EA05152A43444DA8429E
:1034E00002D0494DA8421DD14FF67F752A404D8923
:1034F0004FF6FF7606EA05152A434FF6BF752A40B8
:103500008D8806EA05152A434FF6FF352B404FF20A
:10351000FF752B408D8906EA85052B43CD8906EA88
:1035200085052B4383800483CD880587028470BD85
:1035300070B5002400220023058C4FF6FF6635404D
:103540000584028C8388848B4FF68F752C404FF650
:10355000FC752C400D882C434FF6FF552A400D89F1
:103560004FF6FF7606EA05252A434D8806EA05252B
:103570002A431F4DA84202D0234DA8421DD14FF22D
:10358000FF752A404D894FF6FF7606EA05252A4346
:103590004FF6FF352A408D8806EA05252A434EF668
:1035A000FF752B404DF6FF752B408D8906EA0515FA
:1035B0002B43CD8906EA05152B4383808483CD8870
:1035C0008587028470BD70B5002200230024058C1D
:1035D0004EF6FF7635400584038C8488828B48F64E
:1035E000FF752A404FF6FF452A400D8820E0000075
:1035F000002C01400004004000080040000C004086
:10360000001000400014004000340140004C014014
:10361000005001400054014000180040001C0040D0
:1036200000200040004001400044014000480140AB
:103630004FF6FF7606EA05252A434DF6FF752B4027
:103640000D8906EA05352B434D8806EA05352B43DF
:10365000FA4DA84202D0FA4DA84208D14BF6FF75A8
:103660002C408D894FF6FF7606EA85152C43848021
:103670008283CD88A0F84050038470BD828B4FF2C6
:10368000FF331A408283828B4FF6FF7303EA0123D4
:103690001A4382837047F0B50C461546002200217C
:1036A0000026078C4EF6FF7C07EA0C070784828B06
:1036B000018C4FF6FF7707EA043640F6FF473A40A1
:1036C0004FF6FF7707EA05273A434FF6FF7707EAF9
:1036D00003373A43D94FB8420ED0D94FB8420BD036
:1036E000B0F1804F08D0D74FB84205D0D64FB8427E
:1036F00002D0D64FB84206D14DF6FF77394046F496
:103700008057394305E047F6FF57394044F4805766
:10371000394382830184F0BD828B4FF6F3731A40E4
:103720008283828B0A4382837047F0B50C4615462C
:10373000002200210026078C4FF6FF6C07EA0C07D9
:103740000784828B018C4FF6FF7707EA04264FF639
:103750000C773A404FF6FF7707EA03172F433A43B7
:10376000B64FB8420ED0B64FB8420BD0B0F1804F32
:1037700008D0B44FB84205D0B34FB84202D0B34FCF
:10378000B84206D14FF6FF57394046F480773943A7
:1037900005E04FF2FF57394044F480773943828384
:1037A0000184F0BD028B4FF2FF331A400283028B7B
:1037B0004FF6FF7303EA01231A4302837047F0B503
:1037C0000C461546002200210026078C4FF6EF7CA0
:1037D00007EA0C070784028B018C4FF6FF7707EA94
:1037E000041640F6FF473A404FF6FF7707EA0337E3
:1037F0003A434FF6FF7707EA05273A438F4FB8421F
:103800000ED08F4FB8420BD0B0F1804F08D08D4F03
:10381000B84205D08C4FB84202D08C4FB84206D186
:103820004FF6DF77394046F01007394305E04FF691
:103830005F77394044F01007394302830184F0BDBB
:10384000028B4FF6F3731A400283028B0A43028302
:103850007047F0B50C46154600220021068C4FF645
:10386000FE773E400684028B018C4FF60C76324088
:103870007E1C06EA03162E433243704EB0420ED031
:103880006F4EB0420BD0B0F1804F08D06D4EB042B9
:1038900005D06D4EB04202D06C4EB04206D14FF60C
:1038A000FD76314044F00106314305E04FF6F576F0
:1038B000314044F00106314302830184F0BD70B50C
:1038C00005460C465D4885420ED05D4885420BD0CA
:1038D000B5F1804F08D05B48854205D05A488542F3
:1038E00002D05A48854200D100E000BF208850B97C
:1038F0002389A28861882846FFF7ABFFE188284624
:10390000FFF79EFF25E0208804280AD12389A2889A
:1039100061882846FFF753FFE1882846FFF742FFFA
:1039200017E0208808280AD12389A28861882846C0
:10393000FFF7FBFEE1882846FFF7EEFE09E023894A
:10394000A28861882846FFF7A6FEE1882846FFF78F
:1039500095FE70BD2DE9F04105460C460026012775
:10396000608808B9022600E00026A088012801D15D
:10397000022700E001272088A0B92389A288618856
:103980002846FFF766FFE1882846FFF759FF23899D
:103990003A4631462846FFF712FFE1882846FFF7EE
:1039A00001FF13E02389A28861882846FFF707FFFB
:1039B000E1882846FFF7F6FE23893A463146284635
:1039C000FFF747FFE1882846FFF73AFFBDE8F0819F
:1039D0000A884B881A438B881A43CB881A430B8971
:1039E0001A434B891A438B891A43A0F84420704725
:1039F0004FF6FF71818000210180C18041800172FA
:103A000070470021018041808180C1800181418116
:103A10008181C18170470021018041800121818025
:103A20000021C18001817047002101804180818097
:103A3000C18001814181818170470000002C0140DB
:103A4000003401400004004000080040000C004029
:103A500021B1028842F00102028004E002884FF6A0
:103A6000FE731A400280704731B1B0F8442042F42E
:103A70000042A0F8442005E0B0F84420C2F30E0252
:103A8000A0F8442070471AB183890B43838102E078
:103A900083898B43838170478182704741EA0203A7
:103AA000A0F8483070471AB183890B43838102E044
:103AB00083898B438381704701894FF6F8721140E7
:103AC000018170470A46002101894FF68F73194022
:103AD00011430181704730B504460D462946204602
:103AE000FFF7F0FF208940F00700208130BD2DE96D
:103AF000F04104460D4616461F46602D06D13B4652
:103B0000012231462046FFF75AFE05E03B460122DE
:103B100031462046FFF79DFE29462046FFF7D2FF9B
:103B2000208940F007002081BDE8F08130B50C46C7
:103B300000210189C9B24FF6FF7505EA0325154337
:103B400025432943018130BD2DE9F04105460E464C
:103B500017469846002443463A4631462846FFF722
:103B6000E5FF2C894FF6F870044044F007044FF647
:103B70008F70044044F070042C81BDE8F081F0B5F2
:103B800004460D4616461F463B4632462946204609
:103B9000FFF7CCFF208940F480402081F0BD0185F3
:103BA000828270470A46002101884FF68F731940C0
:103BB000114301807047F0B50C4615461E460021A2
:103BC000002200230189028B038C4FF6F8773940DD
:103BD00021434FF6FC473A4040F201173A434FF673
:103BE000DD773B404FF6FF7707EA06172F433B434D
:103BF000018102830384F0BD0A460021018B4FF648
:103C00008F7319401143018370470A460021018BCD
:103C100048F6FF7319404FF6FF7303EA0223194376
:103C2000018370470A460021818B4FF68F7319403C
:103C30001143818370470A460021818B48F6FF7348
:103C400019404FF6FF7303EA02231943818370473B
:103C500021B1028842F08002028004E002884FF61F
:103C60007F731A400280704721B1828842F00402BB
:103C7000828004E082884FF6FB731A40828070478E
:103C800021B1828842F00802828004E082884FF6E7
:103C9000F7731A408280704721B1828842F0010296
:103CA000828004E082884FF6FE731A40828070475B
:103CB0000A460021018B4FF6F77319401143018327
:103CC00070470A460021018B4FF2FF7319404FF6EF
:103CD000FF7303EA02231943018370470A46002158
:103CE000818B4FF6F77319401143818370470A4661
:103CF0000021818B4FF2FF7319404FF6FF7303EAE7
:103D000002231943818370470A460021018B4FF635
:103D1000FB7319401143018370470A460021018B50
:103D20004FF6FF3319404FF6FF7303EA022319439E
:103D3000018370470A460021818B4FF6FB731940BF
:103D40001143818370470A460021818B4FF6FF3370
:103D500019404FF6FF7303EA02231943818370472A
:103D60000A460021018B4FF67F73194011430183EE
:103D700070470A460021018BC1F30E014FF6FF7315
:103D800003EA02231943018370470A460021818B0D
:103D90004FF67F7319401143818370470A46002113
:103DA000818BC1F30E014FF6FF7303EA022319431F
:103DB000818370470A460021018C4FF6FD7319403C
:103DC0001143018470470A460021018C4FF6F773B6
:103DD00019401143018470470A460021018C4FF6B7
:103DE000DF7319404FF6FF7303EA0213194301848E
:103DF00070470A460021018C4FF67F7319404FF639
:103E0000FF7303EA02131943018470470A46002135
:103E1000018C4FF6FF5319404FF6FF7303EA02235C
:103E20001943018470470A460021018C4FF2FF7349
:103E300019404FF6FF7303EA0223194301847047C8
:103E40000A460021018C4DF6FF7319404FF6FF73AF
:103E500003EA023319430184704730B5002301247B
:103E60008C40A3B2048C9C430484048C02FA01F5B8
:103E7000ADB22C43048430BD30B5002304248C4003
:103E8000A3B2048C9C430484048C02FA01F5ADB205
:103E90002C43048430BD70B503460020002418462E
:103EA000183001258D40ACB21D8CA5431D8409B18D
:103EB000082909D100EB6100056825F0700505604F
:103EC0000568154305600EE00D1FC5F34E05284437
:103ED000056825F4E045056005684FF6FF7606EABB
:103EE00002263543056070BD21B1028842F002020E
:103EF000028004E002884FF6FD731A40028070478A
:103F000021B1028842F00402028004E002884FF6E8
:103F1000FB731A400280704721B1828842F0800210
:103F2000828004E082884FF67F731A408280704757
:103F300002884FF6F7731A40028002880A43028013
:103F4000704782884FF68F731A40828082880A43B6
:103F50008280704702894FF6F8731A400281028905
:103F60000A430281704702894FF67F731A4002812B
:103F700002890A43028170478184704781857047B6
:103F8000818670470187704781877047A0F840108D
:103F9000704702884FF6FF431A40028002880A43A6
:103FA000028070470146888E70470146088F70472F
:103FB0000146888F70470146B1F8400070470146BE
:103FC000888C70470146088D704702460020138A8E
:103FD0000B400BB1012000E000207047CA43028271
:103FE000704730B50246002000230024158A05EAF8
:103FF0000103958905EA010413B10CB1012000E029
:10400000002030BDCA4302827047000010B504464C
:10401000FB48844209D101218803FEF719FF0021E2
:104020004FF48040FEF714FF32E0F648844209D195
:1040300001214804FEF719FF00214FF40030FEF77C
:1040400014FF25E0F048844209D101218804FEF7DD
:104050000CFF00214FF48020FEF707FF18E0EB482B
:10406000844209D10121C804FEF7FFFE00214FF46C
:104070000020FEF7FAFE0BE0E548844208D101215A
:104080000805FEF7F2FE00214FF48010FEF7EDFE6A
:1040900010BD2DE9F04786B005460E460024A24625
:1040A00000BFA1460027B08900B100BF2F462C8A6F
:1040B0004CF6FF700440F08804432C82AC894EF625
:1040C000F3100440B08831890843718908430443E0
:1040D000AC81AC8A4FF6FF400440B0890443AC8207
:1040E00001A8FEF72EFEC648874202D1DDF810A0D7
:1040F00001E0DDF80CA0A88900F4004040B10AEB13
:10410000CA0000EB0A1031684900B0FBF1F807E083
:104110000AEBCA0000EB0A1031688900B0FBF1F825
:104120006420B8FBF0F004012009642101FB108930
:10413000A88900F4004040B1322000EBC900B0FB78
:10414000F1F000F00700044308E0322000EB091012
:104150006421B0FBF1F000F00F0004432C8106B0A5
:10416000BDE8F0874FF41651016000218180C180C5
:1041700001810C21418100218181704710B50246E7
:104180000020108A4FF2FF0318400B884C8823430D
:104190008C882343CC8823431843108210BD002110
:1041A000018041808180C180704721B1828942F4C1
:1041B0000052828104E082894DF6FF731A408281A9
:1041C0007047F0B50346002400260025002040F685
:1041D0006A17B94200D100BF1846C1F3421401F07A
:1041E0001F06012707FA06F5012C01D10C3004E067
:1041F000022C01D1103000E014301AB107682F43AF
:10420000076002E00768AF430760F0BD1AB1838A18
:104210000B43838202E0838A8B4383827047028A46
:104220004FF6F0731A400282028A0A4302827047F4
:1042300082894FF2FF731A40828182890A43828108
:10424000704721B1828942F00202828104E08289B2
:104250004FF6FD731A4082817047028A4FF6DF7372
:104260001A400282028A0A430282704721B1028AFE
:1042700042F48042028204E0028A4BF6FF731A4045
:1042800002827047C1F30802828070470146888825
:10429000C0F308007047818941F0010181817047B6
:1042A000028BD2B20283028B42EA01220283704760
:1042B000028B02F47F420283028B0A43028370471F
:1042C00021B1828A42F02002828204E0828A4FF683
:1042D000DF731A408282704721B1828A42F0100255
:1042E000828204E0828A4FF6EF731A40828270471E
:1042F00021B1828A42F00802828204E0828A4FF66B
:10430000F7731A408282704721B1828942F40042D9
:10431000828103E08289C2F30E028281704721B15B
:10432000828A42F40062828204E0828A4FF2FF7342
:104330001A4082827047828A4FF6FB731A4082824B
:10434000828A0A438282704721B1828A42F0020245
:10435000828204E0828A4FF6FD731A40828270479F
:1043600002460020B1F5007F00D100BF13880B404A
:104370000BB1012000E00020704701F40072B2F59B
:10438000007F00D100BFCA430280704770B502466B
:10439000002400230025002040F66A16B14200D117
:1043A00000BFC1F3421501F01F03012606FA03F313
:1043B000012D02D19689334006E0022D02D1168AE2
:1043C000334001E0968A33400C12012606FA04F4C9
:1043D0001688344013B10CB1012000E0002070BDFC
:1043E00010B50022002340F66A14A14200D100BF9C
:1043F0000A1201249440A3B2DC43048010BD0000E3
:10440000003801400044004000480040004C00409B
:1044100000500040704770477047754600F028F81C
:10442000AE4605006946534620F00700854618B0A1
:1044300020B5FBF7B7FEBDE820404FF000064FF077
:1044400000074FF000084FF0000B21F00701AC46C9
:10445000ACE8C009ACE8C009ACE8C009ACE8C009E8
:104460008D4670470446AFF300802046FBF785FE7B
:1044700000487047C802002001491820ABBEFEE783
:10448000260002007047000010B591EA030F48BFF4
:1044900083F0004300F14083841A71EB030C05D2D2
:1044A000121943EB0C03001B61EB0C01DFF824E154
:1044B0004FEA1154A4EB135C1EEA430F18BF9EEAA7
:1044C000445F73D023EA0E03DCF1200E21EA04518D
:1044D00043F4801332D322FA0CFE10EB0E0023FAC1
:1044E0000CFE41EB0E01CCF1200E03FA0EFE10EB98
:1044F0000E0051F10001B1F5801FCCF1200E32D237
:1045000001EB045112FA0EF2BDE8104058BF70479B
:10451000401C38BF5FEA420218BF7047002814BF32
:1045200020F0010041F100014FEA410313F5001FA3
:1045300038BF7047A1F1C04100F0E0BA012A43EB57
:104540000302ACF1200CDCF11F0E32BF4FF0000E65
:1045500023FA0CF310EB030041EB0451B4EB115FB1
:10456000D0D0A1EB045101F5801149085FEA300079
:1045700001EB04510ED350F1000038BF12FA0EFEC9
:1045800008D1BDE81040C9E7401C38BF5FEA4202CD
:10459000CAD1C3E7BDE810404FEA410313F5001F3D
:1045A00038BF7047A1F1C04100F0A8BA9EEA445F4D
:1045B00008D011EA5E0FBDE8104004BF01F00041D1
:1045C00000207047BDE8104070B500F049FA00BF08
:1045D00064FBBE3E0000E0FF2DE9C04130B4DFF8CF
:1045E000A0C23CEA111418BF3CEA131400F0EC809E
:1045F00081EA03051CEA111444EAD57418BF1CEAC9
:10460000131500F0C780A4EB05044FF0004545EA00
:10461000C12145EAC32341EA505143EA525304F110
:104620007F74994204F500344FEAC0204FEAC22259
:1046300008BF904200F09C804FEA13650FF24016CD
:10464000765D4FEA134506FB05F7C7F1807706FB59
:1046500007F74FEAD737A7FB03687642C8F58038DB
:10466000A7FB06CE38BFA8F1010807FB08E64FF00C
:10467000000EA6FB028CE6FB03CEDCF1000CCEF1B3
:10468000004E38BFAEF1010EA6FB0C584FF00007EC
:104690004FF00005E6FB0E87A1FB08C6A0FB07CE86
:1046A00016EB0E0645F10005E1FB076515F1E04E3E
:1046B0007EBFA4F580345FEA46066D4116F180079F
:1046C00045F100054FEA17274FEA066647EA0567F6
:1046D000A6F1DE46B6F1805F4FEA15251FD93846B0
:1046E00024F0010C05EBC471BCF1FE6F01EB0C1161
:1046F00002D8F0BCBDE8008124425CBF01F5801EF9
:104700009EEAC47F02D4F0BCBDE80081244238D4C4
:10471000F0BCA1F1C041BDE8004100F0EFB94FEAA3
:10472000D22242EA43524FEAD323A7FB02864FEA42
:10473000D02040EA415007FB03661EEA0E0F4FEA05
:10474000D12105FB026658BFA6EB0056B6EB00561A
:104750004FEA520E4EEAC37E18EB0E0E56EB530E86
:10476000BDD518EB02085E417F1C55F10005B6E788
:104770004FF480154FF000074FF000064FF000088F
:10478000ADE7F0BC4FF0000001F1C04101F0004185
:10479000BDE8008111EA0C1F0CEA131500D00CE0F3
:1047A00013EA0C1F00F025804FF00000F0BC81EAF6
:1047B000030101F00041BDE80081F0BC81EA030182
:1047C000BDE8004100F09AB9F0BCBDE8004170B509
:1047D00000F046F9097EFC3E00F007B881EA0301CB
:1047E0004FF0000001F00041704781EA030100F042
:1047F00085B9F0BC4FF000002249BDE80041704788
:10480000FFFDFBF9F7F5F4F2F0EEEDEBE9E8E6E495
:10481000E3E1E0DEDDDBDAD8D7D5D4D3D1D0CFCD1C
:10482000CCCBCAC8C7C6C5C4C2C1C0BFBEBDBCBB55
:10483000BAB9B8B7B6B5B4B3B2B1B0AFAEADACAB50
:10484000AAA9A8A8A7A6A5A4A3A3A2A1A09F9F9E2A
:104850009D9C9C9B9A9999989797969595949393DC
:10486000929191908F8F8E8E8D8C8C8B8B8A898973
:1048700088888787868585848483838282818180F6
:104880000000FF070000F87F4FEA41034FEA53534F
:10489000A3F58063D3F11E03C8BFD3F1210C0CDD57
:1048A0004FF0004242EAC12242EA505232FA03FC7F
:1048B0008CEAE17CACEBE1707047102BC4BF0020A8
:1048C000704703F5787CBCF1FF3F04D06FF00042E5
:1048D00082EA2100704770B500F0C2F84992248046
:1048E00000207047F2E7B0FA80F310FA03F10AD023
:1048F000C3F11D0303F580634FEA41504FEA0352B1
:1049000002EBD12170474FF000007047DFF848C13B
:1049100070B51CEA111E1EBF1CEA13159EEA0C0F8F
:1049200095EA0C0F00F06F8081EA030423EA4C1330
:104930004EEAD47E21EA4C1141F4801143F48013F5
:10494000AE44A1FB024CA0FB0365AEF17F7E36199D
:1049500055EB0C05A1FB034C4CF10003A0FB021C22
:1049600016EB0C06654153F10003094218BF46F0EF
:10497000010613F4007F0BD14FEA03314FEA0530F3
:10498000340341EA155140EA16506FF003020AE081
:104990004FEAC3214FEAC520F40241EA555140EAEB
:1049A00056506FF0020202EB2E4201EB025585EAEF
:1049B000CE710AD05FEA440C18BF24F0004450F1D5
:1049C000000041F1000120EAD47040F2FE7C624513
:1049D00000D270BDA84214BF4FF080444FF0404455
:1049E000002E08BF0024BEF1806FA8BFA1F1C04116
:1049F000BDE8704080F282804FF0000001F1C041BC
:104A000001F0004170479EEA0C0F0CEA131518BF25
:104A100095EA0C0F06D04FF0000081EA030E0EF06D
:104A2000004170BD00F01CF88900013E00F007B89D
:104A300000F009B84FEA430C5FEA5C5C08D081EAF9
:104A4000030100F05BB84FEA410C5FEA5C5CF6D111
:104A50004FF00000014970470000FF070000F87F99
:104A60000EF1020E2EF0030E5EF8046B364205D4F2
:104A7000012A43EB030515F5001F12D8012841EB6D
:104A8000010C1CF5001F0CD80ED14FEAD17C15F596
:104A9000001F0CEB4C0C0CF1020C08BF4CEBD37C50
:104AA00004E04FF0080C01E04FEAD37C0CEB4C051E
:104AB00026FA05F606F00706B6F1040C06D20EEB50
:104AC000860CBDE870404CF0010C6047DFE80CF04C
:104AD000090B02024FF000414FF00000A1F5002148
:104AE00070BD19461046012851EB010418BFD4F5DA
:104AF000001484BF002001F0004170BD0808A0F53B
:104B000000114FEA3101704710B591EA030F48BF19
:104B100083F000433FF5C0AC841A71EB030C07D25D
:104B200012198CF0004C43EB0C03001B61EB0C01E1
:104B3000DFF8A4E14FEA1154A4EB135C1EEA430F23
:104B400018BF9EEA445F00F0B08023EA6E03524231
:104B500021EA0451C3EB6E0338BF5B1EDCF1200E6B
:104B600025D322FA0CFE10EB0E0043FA0CFE41EBAB
:104B70000E01CCF1200E03FA0EFE10EB0E0051F1E7
:104B80000001CCF1200E29D412FA0EF201EB0451EF
:104B9000BDE8104058BF7047401C1CBFB2F1004F29
:104BA000704700280CBF491C20F00100704712EB31
:104BB000020E43EB030218BF4FF0010E4EEA420211
:104BC000ACF1200CDCF11E0E54D943FA0CFE10EBB4
:104BD0000E0051F1FF31CCF11E0ED5D50EF1010EB4
:104BE00012FA0EFE404141EB010101EB445C5FEA29
:104BF0005C5C10D910EBDE7001EB045138BFBEF1E4
:104C0000004FBDE8104018BF704700280CBF491C7A
:104C100020F00100704730D24FEAD42C11F500117A
:104C200024F400641BD0B1FA81F20B3AA41AA41E3A
:104C3000D2F12003914030FA03F31943904001EB85
:104C4000CC71002C01EB0451BDE81040A8BF7047A7
:104C500001F1C0414FF0000001F000417047B0FA8F
:104C600080F310FA03F100D110BDE41A173C480597
:104C7000C90AE4E701EB045110BD491001EB0451EE
:104C8000BDE810404FEA300002E04FF000017047ED
:104C90004A0008BF0042F8D0B2F5001F28BF704795
:104CA00001F000414FF0000070479EEA445F07D0DA
:104CB00011EA5E0FBDE8104004BF002100207047DC
:104CC000BDE8104070B5FFF7CBFE00BF40DFF63EF9
:104CD00083F00041104670470000E0FF41000B0EDA
:104CE000D3F19E0208D950F400034FEA032323FABC
:104CF00002F048BF4042704710B500F0C0F800BF56
:104D000049922480002070476FF0004282EA200020
:104D100070470000C10DD1F19E0206DB4FEA00236F
:104D200043F0004323FA02F07047004207D54FEAF0
:104D30004001B1F1FE4F02D24FF00000704710B5B4
:104D400000F09DF849922480002070476FEA20000F
:104D500070470000B0FA80F310FA03F2C3F19D032C
:104D60000AD0D90501EB1220530638BF704700F175
:104D7000010008BF20F00100704700004FF47F0CD5
:104D80001CEAD0121EBF1CEAD11392EA0C0F93EA60
:104D90000C0F00F0478090EA010F48BF42F4807288
:104DA0004FF0004C4CEA00204CEA012102EB0302D8
:104DB000A0FB0113A2F50002002918BF43F0010374
:104DC0005B0028BF4FEA330342EB22425FEA132C19
:104DD0004CEBC2502EBFBCEB436FB2F57C0F70475B
:104DE0004FEA036CBCF1004F08BF20F00100B2F5A0
:104DF0007C0F38BF70470BD582F0FF0212F5803F61
:104E0000C8BF704700F1C040D8BF00F000407047F5
:104E100000F5000C5FEA4C0C48BF7047B0F1C04091
:104E200000F073B890EA010F0CEAD11348BF42F4C6
:104E30008072624538BF634504D280EA010000F009
:104E40000040704710B500F01AF800BF8900013E1D
:104E500000F007B800F009B85FEA410C5FEA1C6C8B
:104E600008D080EA010000F050B85FEA400C5FEA29
:104E70001C6CF6D14FF00040A0F5800070470EF199
:104E8000020E2EF0030E5EF8044B244204D44FEAC7
:104E90004102B2F17F4F11D84FEA4003B3F17F4F87
:104EA0000CD80ED14FEAD07CB2F17F4F0CEB4C0CFA
:104EB0000CF1020C08BF4CEBD17C04E04FF0080C65
:104EC00001E04FEAD17C0CEB4C0324FA03F404F02C
:104ED0000704B4F1040C06D20EEB840CBDE81040BC
:104EE0004CF0010C6047DFE80CF0070802024FF0BD
:104EF0000040A0F5800010BD0846420018BFD2F166
:104F0000807288BF00F0004010BDFF2141EAD05000
:104F1000C0057047344F00080000002080000000EA
:104F200028010008B44F000880000020A8080000F5
:104F30004401000800000000000000000000000024
:104F40000000000000000000000000000000000160
:104F5000020300000000000000000000000000004C
:104F60000000000000000000000000000000000041
:104F7000000000000000AABBCC0001AABBCC0001CD
:104F800000000000010100000000000000A24A042F
:104F900000000000000000000102030406070809E9
:104FA00000000000010203040102030406070809CF
:044FB00002040608E9
:04000005080000ED02
:00000001FF
